:1000000071C00000E7C1000084C0000082C0000091
:1000100080C000007EC000007CC000007AC00000EC
:1000200078C0000076C0000074C0000072C00000FC
:1000300070C000006EC000006CC000006AC000000C
:1000400068C0000066C0000064C0000062C000001C
:1000500060C000005EC000005CC000005AC000002C
:1000600058C0000056C0000054C0000052C000003C
:1000700050C000004EC000004CC000004AC000004C
:1000800048C0000046C0000044C0000042C000005C
:1000900040C000003EC000003CC000003AC000006C
:1000A00038C0000036C0000034C0000032C000007C
:1000B00030C000002EC000002CC000002AC000008C
:1000C00028C0000026C000004FC1000022C0000070
:1000D00020C000001EC000001CC000001AC00000AC
:1000E00018C0000011241FBECFEFD1E2DEBFCDBF8C
:1000F00000E00CBF12E0A0E0B2E0E8EBF4E000E0CA
:100100000BBF02C007900D92A037B107D9F7BCD141
:10011000D1C176CFE1E2F1E080818560808385EE18
:1001200099EF909325018093240181E080937300DF
:10013000089588E18093C10086E08093C20083E047
:1001400090E09093C5008093C4000895F2DFE2DF51
:1001500078940895E0ECF0E0908195FFFDCF8093D6
:10016000C6000895E0ECF0E0808185FFFDCF8AE0D5
:100170008093C6000895CF93DF93EC018881882394
:1001800029F02196E7DF89918111FCCFDF91CF9192
:1001900008950F931F93CF93DF93C4E4D2E008E652
:1001A00012E0E991F9918081D5DFC017D107C9F735
:1001B000DF91CF911F910F9108950F931F93CF93CC
:1001C000DF93C8E1D2E00EE112E0E991F99180817C
:1001D000C1DFC017D107C9F7C8E1D2E0EE81FF81C6
:1001E0008081B8DFEE81FF818181B4DFE885F98508
:1001F0008081B0DFE885F9858181ACDFC2E2D2E0A1
:1002000008E212E0E991F9918081A4DF0C171D0743
:10021000C9F7C8E1D2E0E889F98980819BDFE889E4
:10022000F989818197DFEA89FB89808193DFEA89F7
:10023000FB8981818FDFEC89FD8980818BDFEC89EF
:10024000FD89818187DFCEE2D2E004E312E0E9910B
:10025000F99180817FDF0C171D07C9F7C8E1D2E053
:10026000EC8DFD8D808176DFEC8DFD8D818172DFDF
:10027000EE8DFF8D80816EDFEE8DFF8D81816ADFD7
:10028000C8E3D2E00EE312E0E991F991808162DFE8
:10029000C017D107C9F7C8E1D2E0EEA1FFA1808164
:1002A00059DFEEA1FFA1818155DFE8A5F9A5808185
:1002B00051DFE8A5F9A581814DDFEAA5FBA5808185
:1002C00049DFEAA5FBA5818145DFDF91CF911F9131
:1002D0000F9108950F931F93CF93DF93CCE0D2E05B
:1002E00008E112E0E991F991808134DFC017D1076C
:1002F000C9F7DF91CF911F910F9108950F931F932D
:10030000CF93DF93C6E0D2E00CE012E0E991F991DF
:10031000808120DFC017D107C9F7DF91CF911F91EE
:100320000F9108950F931F93CF93DF93C0E0D2E016
:1003300006E012E0E991F99180810CDFC017D10746
:10034000C9F7DF91CF911F910F9108958CE692E04C
:1003500012DF08DF1EDF31DFBDDFD0DFE3DF88E63D
:1003600092E009DFFFCE08951F920F920FB60F9211
:1003700011240BB60F922F933F934F935F936F937C
:100380007F938F939F93AF93BF93EF93FF9385EEEC
:1003900099EF9093250180932401D8DFFF91EF918D
:1003A000BF91AF919F918F917F916F915F914F918D
:1003B0003F912F910F900BBE0F900FBE0F901F908B
:1003C0001895E9E6F0E010821DBA80818360808391
:1003D000E89A08951F920F920FB60F9211240BB650
:1003E0000F922F933F934F935F936F937F938F93CE
:1003F0009F93AF93BF93EF93FF938091090190E098
:1004000056D0FF91EF91BF91AF919F918F917F91C6
:100410006F915F914F913F912F910F900BBE0F9075
:100420000FBE0F901F90189557985F9A10928000FA
:1004300010928500109284008FEF9FEF90938900B7
:100440008093880008956B9A739880E29EE490935D
:100450009700809396001092990010929800109245
:1004600095001092940080EC8093900082E180933C
:100470009100089510920A018FEF80930B0187B9C4
:1004800018B811B882B90895F5DF9BDF5FDECCDFC5
:10049000DADFEBE0F1E0808188B92FEF81EE94E0C4
:1004A000215080409040E1F700C00000F4CF88B9AF
:0804B000842F0895F894FFCF9A
:1004B80069006A003D007A007B007C00C000C10032
:1004C800C200C800C900CA00440045006E004700C9
:1004D8004800800081006F0088008A008C00B0000E
:1004E800B1007000B300B400900091007100980052
:1004F8009A009C00210022002000270028002600E6
:100508000A010B0109012A002B00290030003100E3
:100518002F00070108010601454E4400535400000E
:00000001FF
